S01C000044656275672F556C747261736F6E696352616E67652E733139B1
S315200000000248854600F0DDFEFEE7C04600C001201E
S3152000001080B500AF144B1A68134B01210A431A60AE
S31520000020114B00229A60104B1A680F4B0F490A4059
S315200000301A600D4B0E4A5A600B4A84230D49D15043
S31520000040094A88230C49D150074B1A68064B0B499D
S315200000500A401A60044B0022DA60034A8C230021EE
S31520000060D150C046BD4680BD00380240FFFFF6EAAB
S31520000070103000240030002000300024FFFFFBFF5A
S3152000008080B582B000AF0200FB1D1A70054B00221E
S315200000901A70044AFB1D1B781370C046BD4602B079
S315200000A080BDC0460238024090B583B000AF002321
S315200000B03B60FB1D00221A70BB1D00221A70BC1D5E
S315200000C0312000F0A1FD030023703B6801333B6023
S315200000D03A68A023DB019A4203D0BB1D1B78002B74
S315200000E0EDD0312000F090FD031E03D0FB1D012230
S315200000F01A7002E0FB1D00221A70FB1D1B781800E7
S31520000100BD4603B090BD80B584B000AF0200FB1D94
S315200001101A700023FB600A4B1B68FB60FB68F82201
S315200001209343FB60FB1D1B78DB00FA681343FB60DF
S31520000130034BFA681A60C046BD4604B080BDC0466F
S315200001400038024080B582B000AF0200FB1D1A7055
S31520000150034BFA1D12781A60C046BD4602B080BD18
S315200001600000474280B582B000AF0200FB1D1A7026
S315200001700C4B00221A700B4B00221A70FB1D1B78A9
S31520000180012B02D0042B04D007E0064B01221A7063
S3152000019003E0044B05221A70C046C046BD4602B095
S315200001A080BDC0467038024080B582B000AF0200E4
S315200001B0FB1D1A70034BFA1D12781A60C046BD4605
S315200001C002B080BD800E474280B584B000AFF86093
S315200001D0B9607A603B607B689A01BB681A433B68CA
S315200001E05B08013B1B041A43FB681A431100BB69D9
S315200001F01A06034B0A435A60C046BD4604B080BD6A
S315200002000038024080B582B000AF0200FB1D1A7094
S31520000210034BFA1D12781A60C046BD4602B080BD57
S315200002206000474280B582B000AF786039607B6855
S315200002309A013B681B070449134384228B50C0460E
S31520000240BD4602B080BDC0460038024080B582B0AF
S3152000025000AF0200FB1D1A70034BFA1D12781A60BC
S31520000260C046BD4602B080BD6800474280B584B016
S3152000027000AFF860B9607A60FB689A01BB681B061C
S315200002801A437B681B070449134388228B50C046B8
S31520000290BD4604B080BDC0460038024080B582B05D
S315200002A000AF0200FB1D1A70034BFA1D12781A606C
S315200002B0C046BD4602B080BD7000474280B582B0C0
S315200002C000AF0200FB1D1A70034BFA1D12781A604C
S315200002D0C046BD4602B080BD4C00474280B584B0C2
S315200002E000AF786039600023FB600A4B9B68FB6097
S315200002F0FB68094A1340FB607A683B681343FA6837
S315200003001343FB60034BFA689A60C046BD4604B0AF
S3152000031080BDC04600380240FFFF9FF880B584B0FC
S3152000032000AF786039600023FB600A4B9B68FB6056
S31520000330FB685B015B09FB607A683B681343FA68DC
S315200003401343FB60034BFA689A60C046BD4604B06F
S3152000035080BDC0460038024080B584B000AF7860CA
S315200003600023FB60084B9B68FB60FB6803229343DA
S31520000370FB60FA687B681343FB60034BFA689A605C
S31520000380C046BD4604B080BD0038024080B500AFEF
S31520000390044B9B68DBB20C221340DBB21800BD462F
S315200003A080BDC0460038024080B584B000AF78607A
S315200003B00023FB60084B9B68FB60FB68F02293439D
S315200003C0FB60FA687B681343FB60034BFA689A600C
S315200003D0C046BD4604B080BD0038024080B584B01A
S315200003E000AF78600023FB60084B9B68FB60FB68CE
S315200003F0074A1340FB60FA687B681343FB60034B94
S31520000400FA689A60C046BD4604B080BD00380240F6
S31520000410FFE3FFFF80B584B000AF78600023FB6068
S31520000420094B9B68FB60FB68084A1340FB607B68AE
S31520000430DB00FA681343FB60034BFA689A60C046F8
S31520000440BD4604B080BDC04600380240FF1FFFFFF6
S3152000045080B588B000AF78600023BB6100237B6144
S315200004600023FB6102233B610023FB600223BB6068
S315200004704C4B9B680C221340BB61BB69082B11D0E7
S31520000480BB69082B48D8BB69002B03D0BB69042B5A
S3152000049004D041E07B68444A1A6041E07B68434AC5
S315200004A01A603DE03F4B5B689B0D01221340FB60C9
S315200004B03C4B5B683F221340BB60FB68002B0DD092
S315200004C0B9683A4803F0E8F803001A00354B5B6830
S315200004D09B09DB05DB0D5343FB610CE0B968324811
S315200004E003F0DAF803001A002E4B5B689B09DB0544
S315200004F0DB0D5343FB612B4B5B681B0C0322134024
S3152000050001335B003B613969F86903F0C5F80300E4
S315200005101A007B681A6003E07B68234A1A60C0468B
S31520000520204B9B68F0221340BB61BB691B09BB6152
S315200005301F4ABB69D3181B78DBB27B617B681A68BC
S315200005407B69DA407B685A60164B9A68E0235B0128
S315200005501340BB61BB699B0ABB61154ABB69D318B3
S315200005601B78DBB27B617B685A687B69DA407B68E3
S315200005709A600C4B9A68E0231B021340BB61BB694F
S315200005805B0BBB610A4ABB69D3181B78DBB27B6164
S315200005907B685A687B69DA407B68DA60C046BD466C
S315200005A008B080BD003802400024F40040787D0168
S315200005B07038002080B584B000AF78600023FB60DF
S315200005C07A68C0239B001A40C0239B009A420FD111
S315200005D00D4B9B68FB60FB680C4A1340FB607B68F5
S315200005E00B4A1340FA681343FB60074BFA689A607C
S315200005F0054B196F7B681B051A0D034B0A431A67B7
S31520000600C046BD4604B080BD00380240FFFFE0FF73
S31520000610FFFCFF0F80B582B000AF0200FB1D1A70F1
S31520000620034BFA1D12781A60C046BD4602B080BD43
S315200006303C0E474280B582B000AF0200FB1D1A7007
S31520000640034BFA1D12781A60C046BD4602B080BD23
S31520000650400E474280B582B000AF7860034B7A687F
S315200006601A60C046BD4602B080BDC0465C01474206
S3152000067080B584B000AF78600023FB60094A8C23E4
S31520000680D358FB60FB68084A1340FB60FA687B6816
S315200006901343FB6003498C22FB688B50C046BD4642
S315200006A004B080BD00380240FFFFCFFF80B584B084
S315200006B000AF78600023FB60094A8C23D358FB6087
S315200006C0FB68084A1340FB60FA687B681343FB60AB
S315200006D003498C22FB688B50C046BD4604B080BDC2
S315200006E000380240FFFF3FFF80B584B000AF78603E
S315200006F00023FB600A4A8C23D358FB60FB681F2229
S315200007009343FB607B68013BFA681343FB60044913
S315200007108C22FB688B50C046BD4604B080BDC046C7
S315200007200038024080B584B000AF78600023FB60BB
S315200007300A4A8C23D358FB60FB68094A1340FB60A6
S315200007407B68013B1B02FA681343FB6003498C223A
S31520000750FB688B50C046BD4604B080BD00380240C1
S31520000760FFE0FFFF80B584B000AF78600023FB6018
S31520000770094A8C23D358FB60FB68084A1340FB6068
S31520000780FA687B681343FB6003498C22FB688B5015
S31520000790C046BD4604B080BD00380240FFFFFCFFC6
S315200007A080B582B000AF7860034B7A681A60C04685
S315200007B0BD4602B080BDC046E011474280B582B03A
S315200007C000AF78600A00FB1C1A70FB1C1B78002BFC
S315200007D006D0094B196B084B7A680A431A6306E060
S315200007E0054B1A6B7B68D943034B0A401A63C046F4
S315200007F0BD4602B080BDC0460038024080B582B0FA
S3152000080000AF78600A00FB1C1A70FB1C1B78002BBB
S3152000081006D0094B596B084B7A680A435A6306E09F
S31520000820054B5A6B7B68D943034B0A405A63C04633
S31520000830BD4602B080BDC0460038024080B582B0B9
S3152000084000AF78600A00FB1C1A70FB1C1B78002B7B
S3152000085006D0094B996B084B7A680A439A6306E0DF
S31520000860054B9A6B7B68D943034B0A409A63C04673
S31520000870BD4602B080BDC0460038024080B582B079
S3152000088000AF78600A00FB1C1A70FB1C1B78002B3B
S3152000089006D0094B196C084B7A680A431A6406E09D
S315200008A0054B1A6C7B68D943034B0A401A64C04631
S315200008B0BD4602B080BDC0460038024080B582B039
S315200008C000AF78600A00FB1C1A70FB1C1B78002BFB
S315200008D006D0094B596C084B7A680A435A6406E0DD
S315200008E0054B5A6C7B68D943034B0A405A64C04671
S315200008F0BD4602B080BDC0460038024080B582B0F9
S3152000090000AF78600A00FB1C1A70FB1C1B78002BBA
S3152000091006D0094B1969084B7A680A431A6106E022
S31520000920054B1A697B68D943034B0A401A61C046B6
S31520000930BD4602B080BDC0460038024080B582B0B8
S3152000094000AF78600A00FB1C1A70FB1C1B78002B7A
S3152000095006D0094B5969084B7A680A435A6106E062
S31520000960054B5A697B68D943034B0A405A61C046F6
S31520000970BD4602B080BDC0460038024080B582B078
S3152000098000AF78600A00FB1C1A70FB1C1B78002B3A
S3152000099006D0094B9969084B7A680A439A6106E0A2
S315200009A0054B9A697B68D943034B0A409A61C04636
S315200009B0BD4602B080BDC0460038024080B582B038
S315200009C000AF78600A00FB1C1A70FB1C1B78002BFA
S315200009D006D0094B196A084B7A680A431A6206E060
S315200009E0054B1A6A7B68D943034B0A401A62C046F4
S315200009F0BD4602B080BDC0460038024080B582B0F8
S31520000A0000AF78600A00FB1C1A70FB1C1B78002BB9
S31520000A1006D0094B596A084B7A680A435A6206E09F
S31520000A20054B5A6A7B68D943034B0A405A62C04633
S31520000A30BD4602B080BDC0460038024080B582B0B7
S31520000A4000AF78600A00FB1C1A70FB1C1B78002B79
S31520000A5006D0094B196D084B7A680A431A6506E0D9
S31520000A60054B1A6D7B68D943034B0A401A65C0466D
S31520000A70BD4602B080BDC0460038024080B582B077
S31520000A8000AF78600A00FB1C1A70FB1C1B78002B39
S31520000A9006D0094B596D084B7A680A435A6506E019
S31520000AA0054B5A6D7B68D943034B0A405A65C046AD
S31520000AB0BD4602B080BDC0460038024080B582B037
S31520000AC000AF78600A00FB1C1A70FB1C1B78002BF9
S31520000AD006D0094B996D084B7A680A439A6506E059
S31520000AE0054B9A6D7B68D943034B0A409A65C046ED
S31520000AF0BD4602B080BDC0460038024080B582B0F7
S31520000B0000AF78600A00FB1C1A70FB1C1B78002BB8
S31520000B1006D0094B196E084B7A680A431A6606E016
S31520000B20054B1A6E7B68D943034B0A401A66C046AA
S31520000B30BD4602B080BDC0460038024080B582B0B6
S31520000B4000AF78600A00FB1C1A70FB1C1B78002B78
S31520000B5006D0094B596E084B7A680A435A6606E056
S31520000B60054B5A6E7B68D943034B0A405A66C046EA
S31520000B70BD4602B080BDC0460038024080B582B076
S31520000B8000AF0200FB1D1A70FB1D1B78012B06D13E
S31520000B90084B1A6F074B08210A431A6705E0054BD5
S31520000BA01A6F044B08218A431A67C046BD4602B015
S31520000BB080BDC0460038024080B582B000AF02003A
S31520000BC0FB1D1A70BB1D0A1C1A70BB1D1B78002B3F
S31520000BD009D00C4B1B78DAB20A49FB1D1B7813434C
S31520000BE0DBB20B700AE0074B1B78DBB2FA1D1278DA
S31520000BF0D243D2B203491340DBB20B70C046BD4686
S31520000C0002B080BD0D38024080B586B000AF02002C
S31520000C10FB1D1A700023FB6000237B611323FB1846
S31520000C2000221A70FB1D1B785B09DBB2FB60FB6898
S31520000C30012B03D1144B1B687B6109E0FB68022B57
S31520000C4003D1114B1B6F7B6102E00F4B5B6F7B6106
S31520000C50FB1D1B781F221340FB607A69FB68DA4074
S31520000C6013000122134004D01323FB1801221A700B
S31520000C7003E01323FB1800221A701323FB181B789A
S31520000C801800BD4606B080BD0038024080B500AFD2
S31520000C90044B5A6F034B802149040A435A67C046C6
S31520000CA0BD4680BD0038024080B584B000AF02004A
S31520000CB0FB1D1A700F217B1800221A700A4BDB6865
S31520000CC0FA1D1278134003D07B1801221A7003E014
S31520000CD00F23FB1800221A700F23FB181B7818000D
S31520000CE0BD4604B080BDC0460038024080B582B003
S31520000CF000AF0200FB1D1A70034AFB1D1B78137000
S31520000D00C046BD4602B080BD0E38024090B585B0C3
S31520000D1000AF08243B19180000F033FA3B001800F6
S31520000D2000F02FFA3B1901221A603B190222DA71D0
S31520000D303B1900229A713B1901221A713B000222AB
S31520000D401A603B000222DA713B0000229A713B00B6
S31520000D5000221A713B00074A1900100000F084F99E
S31520000D603B19044A1900100000F07EF9C046BD4622
S31520000D7005B090BD000C024080B584B000AF0121C3
S31520000D800120FFF77BFD3B1D00221A803B1D01221F
S31520000D9052425A603B1D00221A813B1D00225A8076
S31520000DA03A1D8023DB051100180000F071FC80231A
S31520000DB0DB050121180000F003FEC046BD4604B045
S31520000DC080BD80B58CB000AFFFF7A0FFFFF7D4FF42
S31520000DD0434B0121180000F075FA424B180000F031
S31520000DE059FB8023DB050021180000F021FDC046B9
S31520000DF08023DB05180000F033FD03003A4A9342B6
S31520000E00F6D9374B0121180000F04DFA8023DB0577
S31520000E100021180000F00CFDC0468023DB051800D9
S31520000E2000F01EFD0200D223DB009A42F5D32C4BA4
S31520000E300121180000F046FA06E08023DB051800A1
S31520000E4000F00EFD0300FB62254B0221180000F086
S31520000E50D4F9031EF1D006E08023DB05180000F04C
S31520000E60FFFC0300BB621E4B0221180000F0C5F9EF
S31520000E70031EF1D1FA6ABB6A9A4205D3BA6AFB6AA3
S31520000E80D31A013B7B6203E0BA6AFB6AD31A7B6200
S31520000E907A6A1300DB009B1ADA00D21AD3009B1A57
S31520000EA01249180002F0F8FB03003B623A6AC82395
S31520000EB05B009A420AD239003B6A0A22180002F0E5
S31520000EC08FFC0300180000F0E5FA03E0084B180039
S31520000ED000F0E0FA074B180000F0DCFA81E7C04684
S31520000EE0000C024080380020FFCE990080A2190015
S31520000EF08C380020A038002080B582B000AF786002
S31520000F007B684E4A934208D101210120FFF7F6FC67
S31520000F1000210120FFF7F2FC8CE07B68484A9342CF
S31520000F2008D101210220FFF7E9FC00210220FFF76A
S31520000F30E5FC7FE07B68434A934208D101210420E7
S31520000F40FFF7DCFC00210420FFF7D8FC72E07B6869
S31520000F503D4A934208D101210820FFF7CFFC00210A
S31520000F600820FFF7CBFC65E07B68384A934208D11E
S31520000F7001211020FFF7C2FC00211020FFF7BEFC44
S31520000F8058E07B68324A934208D101212020FFF79E
S31520000F90B5FC00212020FFF7B1FC4BE07B682D4AF1
S31520000FA0934208D101214020FFF7A8FC00214020D0
S31520000FB0FFF7A4FC3EE07B68274A934208D1012133
S31520000FC08020FFF79BFC00218020FFF797FC31E073
S31520000FD07B68224A93420CD180235B0001211800B2
S31520000FE0FFF78CFC80235B0000211800FFF786FCAE
S31520000FF020E07B681A4A93420CD180239B00012172
S315200010001800FFF77BFC80239B0000211800FFF7C8
S3152000101075FC0FE07B68134A93420BD18023DB00DB
S3152000102001211800FFF76AFC8023DB00002118004D
S31520001030FFF764FCC046BD4602B080BD00000240FA
S315200010400004024000080240000C0240001002404A
S315200010500014024000180240001C024000200240FA
S31520001060002402400028024080B586B000AF786098
S31520001070396000237B6100233B610023FB60002352
S315200010807B6176E001227B699A4013003B613B68D5
S315200010901A683B691340FB60FA683B699A4265D13E
S315200010A07B681B687A695200032191400A00D2436B
S315200010B01A407B681A607B681A683B681B7919009E
S315200010C07B695B0099400B001A437B681A603B687A
S315200010D01B79012B03D03B681B79022B2ED17B6811
S315200010E09B687A695200032191400A00D2431A4034
S315200010F07B689A607B689A683B685B7919007B6994
S315200011005B0099400B001A437B689A607B685B689A
S315200011107A6992B2110001228A40D2431A407B6832
S315200011205A607B685B683A68927911007A6992B254
S3152000113091400A0092B21A437B685A607B68DB684A
S315200011407A6992B25200032191400A00D2431A4092
S315200011507B68DA607B68DA683B68DB7919007B6933
S315200011605B0099400B001A437B68DA607B69013388
S315200011707B617B690F2B85D9C046C046BD4606B02C
S3152000118080BD80B582B000AF78607B68084A1A605F
S315200011907B6800221A717B6800225A717B680022C4
S315200011A09A717B680022DA71C046BD4602B080BDC6
S315200011B0FFFF000080B584B000AF78600A00BB1C3A
S315200011C01A8080235B02FB60BB1C1A88FB681343D2
S315200011D0FB60FA687B68DA61BB1C1A887B68DA6177
S315200011E0FA687B68DA617B68DB69FB607B68DB69B0
S315200011F0FB60C046BD4604B080BD80B584B000AF5C
S3152000120078600A00BB1C1A800F217B1800221A70F6
S315200012107B681B69BA1C1288134003D07B180122F5
S315200012201A7003E00F23FB1800221A700F23FB18F5
S315200012301B781800BD4604B080BD80B582B000AFD3
S3152000124078607B681B699BB21800BD4602B080BDE2
S3152000125080B584B000AF78600A00BB1C1A800F21CD
S315200012607B1800221A707B685B69BA1C12881340AF
S3152000127003D07B1801221A7003E00F23FB180022EB
S315200012801A700F23FB181B781800BD4604B080BDCA
S3152000129080B582B000AF78607B685B699BB218002E
S315200012A0BD4602B080BD80B582B000AF78600A002E
S315200012B0BB1C1A807B68BA1C12881A83C046BD469E
S315200012C002B080BD80B582B000AF78600A00BB1C3A
S315200012D01A807B68BA1C12885A83C046BD4602B063
S315200012E080BD80B582B000AF786008001100BB1CBD
S315200012F0021C1A807B1C0A1C1A707B1C1B78002B74
S3152000130004D07B68BA1C12881A8303E07B68BA1C57
S3152000131012885A83C046BD4602B080BD80B582B0D1
S3152000132000AF78600A00BB1C1A80BB1C1A887B6839
S315200013305A61C046BD4602B080BD80B582B000AFBE
S3152000134078600A00BB1C1A807B685A69BB1C1B8804
S315200013505A407B685A61C046BD4602B080BD80B502
S3152000136084B000AF786008001100BB1C021C1A80F4
S315200013707B1C0A1C1A700023FB600023BB607B1CAD
S315200013801A78BB1C1B8807210B409B009A40130030
S31520001390FB60BB1C1B88DB089BB21A007B680832EB
S315200013A09200D358BA1C128807210A4092000F21B6
S315200013B091400A00D243B91C0988C90889B208009D
S315200013C01A4011007B68020008329200D150BB1CE3
S315200013D01B88DB089BB21A007B6808329200D35820
S315200013E0FA681343BB60BB1C1B88DB089BB21A0040
S315200013F07B6808329200B968D150C046BD4604B019
S3152000140080BDC04680B582B000AF0200FB1D1A70B9
S31520001410C0460B4B1B889BB21A0080231340F8D082
S31520001420074AFB1D1B789BB29380FB1D1B780A2B5A
S3152000143002D10D20FFF7E6FFC046BD4602B080BDB3
S315200014400010014080B500AF074B1B889BB21A00E5
S315200014502023134001D1002303E0034B9B889BB23A
S31520001460DBB21800BD4680BD0010014080B500AF3C
S31520001470C046074B1B889BB21A0020231340F8D086
S31520001480034B9B889BB2DBB21800BD4680BDC0468D
S315200014900010014080B582B000AF786006E07B681E
S315200014A05A1C7A601B781800FFF7ACFF7B681B7804
S315200014B0002BF4D1C046C046BD4602B080BDC04612
S315200014C080B582B000AF78607B68644A934208D1C9
S315200014D001210120FFF792FA00210120FFF78EFA61
S315200014E0B8E07A688023DB059A4208D101210120E1
S315200014F0FFF764FA00210120FFF760FAAAE07B6873
S31520001500574A934208D101210220FFF757FA0021BA
S315200015100220FFF753FA9DE07B68524A934208D196
S3152000152001210420FFF74AFA00210420FFF746FA9A
S3152000153090E07B684C4A934208D101210820FFF7AE
S315200015403DFA00210820FFF739FA83E07B68474AF5
S31520001550934208D101211020FFF730FA00211020F4
S31520001560FFF72CFA76E07B68414A934208D10121A5
S315200015702020FFF723FA00212020FFF71FFA69E039
S315200015807B683C4A934208D101210220FFF736FAB4
S3152000159000210220FFF732FA5CE07B68364A93424C
S315200015A00CD180235B0201211800FFF727FA802344
S315200015B05B0200211800FFF721FA4BE07B682F4AD7
S315200015C093420CD180239B0201211800FFF716FAC3
S315200015D080239B0200211800FFF710FA3AE07B686F
S315200015E0274A93420CD18023DB0201211800FFF702
S315200015F005FA8023DB0200211800FFF7FFF929E016
S315200016007B68204A934208D101214020FFF7D6F972
S3152000161000214020FFF7D2F91CE07B681A4A93424A
S3152000162008D101218020FFF7C9F900218020FFF78A
S31520001630C5F90FE07B68154A93420BD180235B00E6
S3152000164001211800FFF7BAF980235B00002118005A
S31520001650FFF7B4F9C046BD4602B080BD0000014088
S315200016600004004000080040000C0040001000402C
S3152000167000140040000401400040014000440140A5
S315200016800048014000180040001C00400020004097
S3152000169080B584B000AF786039600E217B180022B7
S315200016A01A807B187A6812881A807B682E4A9342A1
S315200016B014D07B682D4A934210D07A688023DB05AC
S315200016C09A420BD07B682A4A934207D07B68294AE4
S315200016D0934203D07B68284A93420DD10E203B18B3
S315200016E03A18128870218A431A803B6859883B1819
S315200016F03A1812880A431A807B68204A934211D0EE
S315200017007B681F4A93420DD00E203B183A18128848
S315200017101C490A401A803B6819893B183A181288D6
S315200017200A431A807B680E22BA1812881A803B68F0
S315200017305A687B68DA623B681A887B681A857B68F8
S31520001740094A934203D07B68084A934204D13B68F6
S315200017509B7A9AB27B681A867B6801229A82C04657
S31520001760BD4604B080BDC0460000014000040140D3
S315200017700004004000080040000C0040001000401B
S3152000178000140040FFFCFFFF80B582B000AF7860F8
S315200017907B68012252425A607B6800221A807B684D
S315200017A000221A817B6800225A807B6800229A7266
S315200017B0C046BD4602B080BD80B582B000AF78601D
S315200017C008001100BB1C021C1A803B000A1C1A8050
S315200017D07B68BA1C12881A857B683A0012889A821E
S315200017E0C046BD4602B080BD80B584B000AF7860EB
S315200017F00A00BB1C1A800E203B1800221A803B18B8
S315200018007A6812881A803B183A18128870218A43FF
S315200018101A803B183918BA1C098812880A431A807C
S315200018207B683A1812881A80C046BD4604B080BD2F
S3152000183080B582B000AF786039607B683A685A62BA
S31520001840C046BD4602B080BD80B582B000AF78608C
S3152000185039607B683A68DA62C046BD4602B080BD10
S3152000186080B582B000AF78607B685B6A1800BD46A1
S3152000187002B080BD80B582B000AF78607B681B8DDA
S315200018809BB21800BD4602B080BD80B582B000AFC5
S3152000189078600A00FB1C1A70FB1C1B78002B08D0F2
S315200018A07B681B889BB2022213439AB27B681A80FC
S315200018B007E07B681B889BB2022293439AB27B681F
S315200018C01A80C046BD4602B080BD80B582B000AF4A
S315200018D078600A00BB1C1A80BB1C1B88002B08D012
S315200018E07B681B889BB2042213439AB27B681A80BA
S315200018F007E07B681B889BB2042293439AB27B68DD
S315200019001A80C046BD4602B080BD80B582B000AF09
S3152000191078600A00FB1C1A70FB1C1B78002B08D071
S315200019207B681B889BB2802213439AB27B681A80FD
S3152000193007E07B681B889BB2802293439AB27B6820
S315200019401A80C046BD4602B080BD80B582B000AFC9
S3152000195078600A00BB1C1A807B681B889BB2082211
S3152000196093439AB27B681A807B681B889AB2BB1C09
S315200019701B8813439AB27B681A80C046BD4602B0C4
S3152000198080BD80B582B000AF78600A00BB1C1A808B
S315200019907B681B889BB2094A13409AB27B681A80DF
S315200019A07B681B889AB2BB1C1B8813439AB27B6840
S315200019B01A80C046BD4602B080BDC046FFFCFFFF70
S315200019C080B582B000AF78600A00FB1C1A70FB1C41
S315200019D01B78002B08D07B681B889BB201221343FF
S315200019E09AB27B681A8007E07B681B889BB201222B
S315200019F093439AB27B681A80C046BD4602B080BD2A
S31520001A0090B585B000AF786039600A217B18002236
S31520001A101A800E243B1900221A800C203B18002223
S31520001A201A807B681B8C9BB2012293439AB27B68F7
S31520001A301A843B197A68128C1A803B187A68928825
S31520001A401A807B187A68128B1A807B1808007A18FD
S31520001A50128870218A431A803B183A18128803216B
S31520001A608A431A803B6819883B183A1812880A4319
S31520001A701A8020003B183A18128802218A431A80BD
S31520001A803B6899893B183A1812880A431A803B68A2
S31520001A9059883B183A1812880A431A807B682A4AC2
S31520001AA0934203D07B68294A934235D10E203B18B6
S31520001AB03A18128808218A431A803B68D9893B182C
S31520001AC03A1812880A431A803B183A1812880421B9
S31520001AD08A431A803B6899883B183A1812880A4329
S31520001AE01A800C203B183A18128819490A401A8085
S31520001AF03B183A18128817490A401A803B68198AF7
S31520001B003B183A1812880A431A803B68598A3B18B0
S31520001B103A1812880A431A807B680C22BA1812884F
S31520001B209A807B680A22BA1812881A833B689A68B8
S31520001B307B685A637B680E22BA1812881A84C046BC
S31520001B40BD4605B090BDC0460000014000040140DE
S31520001B50FFFEFFFFFFFDFFFF90B585B000AF786069
S31520001B6039600A217B1800221A800E243B19002294
S31520001B701A800C203B1800221A807B681B8C9BB293
S31520001B80102293439AB27B681A843B197A68128C86
S31520001B901A803B187A6892881A807B187A68128B8A
S31520001BA01A807B1808007A18128844490A401A803D
S31520001BB03B183A18128842490A401A803B681B880B
S31520001BC01B0299B23B183A1812880A431A80200041
S31520001BD03B183A18128820218A431A803B689B8931
S31520001BE01B0199B23B183A1812880A431A803B689F
S31520001BF05B881B0199B23B183A1812880A431A804F
S31520001C007B68304A934203D07B682F4A93423DD16A
S31520001C100E203B183A18128880218A431A803B6886
S31520001C20DB891B0199B23B183A1812880A431A809D
S31520001C303B183A18128840218A431A803B689B88B1
S31520001C401B0199B23B183A1812880A431A800C20B5
S31520001C503B183A1812881D490A401A803B183A1830
S31520001C6012881B490A401A803B681B8A9B0099B23E
S31520001C703B183A1812880A431A803B685B8A9B00F5
S31520001C8099B23B183A1812880A431A807B680C22AC
S31520001C90BA1812889A807B680A22BA1812881A8380
S31520001CA03B689A687B689A637B680E22BA1812880A
S31520001CB01A84C046BD4605B090BDC046FF8FFFFFC3
S31520001CC0FFFCFFFF0000014000040140FFFBFFFF77
S31520001CD0FFF7FFFF90B585B000AF786039600A2125
S31520001CE07B1800221A800E243B1900221A800C2011
S31520001CF03B1800221A807B681B8C9BB24D4A1340EE
S31520001D009AB27B681A843B197A68128C1A803B181F
S31520001D107A6892881A807B187A68928B1A807B1848
S31520001D2008007A18128870218A431A803B183A18BC
S31520001D30128803218A431A803B6819883B183A186F
S31520001D4012880A431A8020003B183A1812883A490A
S31520001D500A401A803B689B891B0299B23B183A18A5
S31520001D6012880A431A803B685B881B0299B23B188B
S31520001D703A1812880A431A807B68304A934203D065
S31520001D807B682F4A93423DD10E203B183A18128881
S31520001D902C490A401A803B68DB891B0299B23B1802
S31520001DA03A1812880A431A803B183A18128826498C
S31520001DB00A401A803B689B881B0299B23B183A1846
S31520001DC012880A431A800C203B183A1812881F4999
S31520001DD00A401A803B183A1812881D490A401A8070
S31520001DE03B681B8A1B0199B23B183A1812880A4392
S31520001DF01A803B685B8A1B0199B23B183A181288F5
S31520001E000A431A807B680C22BA1812889A807B684B
S31520001E100A22BA1812889A833B689A687B68DA6322
S31520001E207B680E22BA1812881A84C046BD4605B0B1
S31520001E3090BDC046FFFEFFFFFFFDFFFF00000140F3
S31520001E4000040140FFF7FFFFFFFBFFFFFFEFFFFF4F
S31520001E50FFDFFFFF90B585B000AF786039600C21B9
S31520001E607B1800221A800A243B1900221A800E2091
S31520001E703B1800221A807B681B8C9BB2374A134082
S31520001E809AB27B681A843B197A68128C1A803B189E
S31520001E907A6892881A807B187A68928B1A807B18C7
S31520001EA008007A1812882E490A401A803B183A18D8
S31520001EB012882C490A401A803B681B881B0299B25B
S31520001EC03B183A1812880A431A8020003B183A1801
S31520001ED0128825490A401A803B689B891B0399B2C0
S31520001EE03B183A1812880A431A803B685B881B0302
S31520001EF099B23B183A1812880A431A807B681B4A03
S31520001F00934203D07B681A4A93420FD10E203B1886
S31520001F103A18128817490A401A803B681B8A9B0187
S31520001F2099B23B183A1812880A431A807B680E2207
S31520001F30BA1812889A807B680C22BA1812889A835B
S31520001F403B689A687B681A647B680A22BA181288EA
S31520001F501A84C046BD4605B090BDC046FFEFFFFFC0
S31520001F60FF8FFFFFFFFCFFFFFFDFFFFF00000140A9
S31520001F7000040140FFBFFFFF80B582B000AF78604C
S31520001F807B6800221A807B6800225A807B680022A8
S31520001F909A807B6800229A607B6800229A817B68FF
S31520001FA00022DA817B6800221A827B6800225A820C
S31520001FB0C046BD4602B080BD80B584B000AF786013
S31520001FC008001100BB1C021C1A803B000A1C1A8048
S31520001FD00023FB600A217B1800221A807B68FB60A5
S31520001FE0FB681833FB60BB1C1B8801229A407B18B8
S31520001FF01A807B681B8C9BB27A181288D24392B2C5
S3152000200013409AB27B681A84BB1C1B88002B03D012
S31520002010BB1C1B88082B15D1BB1C1B885B089BB2DD
S315200020201A00FB689B18FB60FB681A68FB68154959
S315200020300A401A60FB6819683B001A88FB680A4345
S315200020401A601AE0BB1C1B88043B9BB25B089BB240
S315200020501A00FB689B18FB60FB681A68FB680A4934
S315200020600A401A60FB681A683B001B881B029BB259
S315200020701900FB680A431A60C046C046BD4604B034
S3152000208080BDC0468FFF0000FF8F000080B582B064
S3152000209000AF786039607B683A685A63C046BD46AF
S315200020A002B080BD80B582B000AF786039607B68B1
S315200020B03A689A63C046BD4602B080BD80B582B0FC
S315200020C000AF786039607B683A68DA63C046BD46FF
S315200020D002B080BD80B582B000AF786039607B6881
S315200020E03A681A64C046BD4602B080BD80B584B049
S315200020F000AF78600A00BB1C1A800E203B18002215
S315200021001A803B187A68128B1A803B183A18128864
S3152000211070218A431A803B183918BA1C09881288FC
S315200021200A431A807B683A1812881A83C046BD462D
S3152000213004B080BD80B584B000AF78600A00BB1CB7
S315200021401A800E203B1800221A803B187A68128BC0
S315200021501A803B183A18128809490A401A80BB1C73
S315200021601B881B0299B23B183A1812880A431A8018
S315200021707B683A1812881A83C046BD4604B080BDD3
S31520002180FF8FFFFF80B584B000AF78600A00BB1CCC
S315200021901A800E203B1800221A803B187A68928BF0
S315200021A01A803B183A18128870218A431A803B18E5
S315200021B03918BA1C098812880A431A807B683A188B
S315200021C012889A83C046BD4604B080BD80B584B0CF
S315200021D000AF78600A00BB1C1A800E203B18002234
S315200021E01A803B187A68928B1A803B183A18128804
S315200021F009490A401A80BB1C1B881B0299B23B184E
S315200022003A1812880A431A807B683A1812889A83E9
S31520002210C046BD4604B080BDFF8FFFFF80B584B0A9
S3152000222000AF78600A00BB1C1A800E203B180022E3
S315200022301A803B187A68128B1A803B183A18128833
S3152000224008218A431A803B183918BA1C0988128833
S315200022500A431A807B683A1812881A83C046BD46FC
S3152000226004B080BD80B584B000AF78600A00BB1C86
S315200022701A800E203B1800221A803B187A68128B8F
S315200022801A803B183A18128809490A401A80BB1C42
S315200022901B881B0299B23B183A1812880A431A80E7
S315200022A07B683A1812881A83C046BD4604B080BDA2
S315200022B0FFF7FFFF80B584B000AF78600A00BB1C33
S315200022C01A800E203B1800221A803B187A68928BBF
S315200022D01A803B183A18128808218A431A803B181C
S315200022E03918BA1C098812880A431A807B683A185A
S315200022F012889A83C046BD4604B080BD80B584B09E
S3152000230000AF78600A00BB1C1A800E203B18002202
S315200023101A803B187A68928B1A803B183A181288D2
S3152000232009490A401A80BB1C1B881B0299B23B181C
S315200023303A1812880A431A807B683A1812889A83B8
S31520002340C046BD4604B080BDFFF7FFFF80B584B010
S3152000235000AF78600A00BB1C1A800E203B180022B2
S315200023601A803B187A68128B1A803B183A18128802
S3152000237004218A431A803B183918BA1C0988128806
S315200023800A431A807B683A1812881A83C046BD46CB
S3152000239004B080BD80B584B000AF78600A00BB1C55
S315200023A01A800E203B1800221A803B187A68128B5E
S315200023B01A803B183A18128809490A401A80BB1C11
S315200023C01B881B0299B23B183A1812880A431A80B6
S315200023D07B683A1812881A83C046BD4604B080BD71
S315200023E0FFFBFFFF80B584B000AF78600A00BB1CFE
S315200023F01A800E203B1800221A803B187A68928B8E
S315200024001A803B183A18128804218A431A803B18EE
S315200024103918BA1C098812880A431A807B683A1828
S3152000242012889A83C046BD4604B080BD80B584B06C
S3152000243000AF78600A00BB1C1A800E203B180022D1
S315200024401A803B187A68928B1A803B183A181288A1
S3152000245009490A401A80BB1C1B881B0299B23B18EB
S315200024603A1812880A431A807B683A1812889A8387
S31520002470C046BD4604B080BDFFFBFFFF80B584B0DB
S3152000248000AF78600A00BB1C1A800E203B18002281
S315200024901A803B187A68128B1A803B183A181288D1
S315200024A080218A431A803B183918BA1C0988128859
S315200024B00A431A807B683A1812881A83C046BD469A
S315200024C004B080BD80B584B000AF78600A00BB1C24
S315200024D01A800E203B1800221A803B187A68128B2D
S315200024E01A803B183A1812885204520C1A80BB1CC8
S315200024F01B881B0299B23B183A1812880A431A8085
S315200025007B683A1812881A83C046BD4604B080BD3F
S3152000251080B584B000AF78600A00BB1C1A800E20FC
S315200025203B1800221A803B187A68928B1A803B1837
S315200025303A18128880218A431A803B183918BA1C07
S31520002540098812880A431A807B683A1812889A8367
S31520002550C046BD4604B080BD80B584B000AF78606B
S315200025600A00BB1C1A800E203B1800221A803B183A
S315200025707A68928B1A803B183A1812885204520CA9
S315200025801A80BB1C1B881B0299B23B183A1812886A
S315200025900A431A807B683A1812889A83C046BD4639
S315200025A004B080BD80B584B000AF78600A00BB1C43
S315200025B01A800E203B1800221A803B187A68128C4B
S315200025C01A803B183A18128802218A431A803B182F
S315200025D03918BA1C098812880A431A807B683A1867
S315200025E012881A84C046BD4604B080BD80B584B02A
S315200025F000AF78600A00BB1C1A800E203B18002210
S315200026001A803B187A68128C1A803B183A1812885E
S3152000261008218A431A803B183918BA1C098812885F
S315200026200A431A807B683A1812881A84C046BD4627
S3152000263004B080BD80B584B000AF78600A00BB1CB2
S315200026401A800E203B1800221A803B187A68128CBA
S315200026501A803B183A18128820218A431A80BB1CFC
S315200026601B881B0199B23B183A1812880A431A8014
S315200026707B683A1812881A84C046BD4604B080BDCD
S3152000268080B584B000AF78600A00BB1C1A800E208B
S315200026903B1800221A803B187A68128C1A803B1845
S315200026A03A18128880218A431A80BB1C1B881B017A
S315200026B099B23B183A1812880A431A807B683A184E
S315200026C012881A84C046BD4604B080BD80B584B049
S315200026D000AF78600A00BB1C1A800E203B1800222F
S315200026E01A803B187A68128C1A803B183A1812887E
S315200026F009490A401A80BB1C1B881B0299B23B1849
S315200027003A1812880A431A807B683A1812881A8463
S31520002710C046BD4604B080BDFFFDFFFF80B584B036
S3152000272000AF78600A00BB1C1A800E203B180022DE
S315200027301A803B187A68128C1A803B183A1812882D
S3152000274009490A401A80BB1C1B881B0299B23B18F8
S315200027503A1812880A431A807B683A1812881A8413
S31520002760C046BD4604B080BDFFF7FFFF80B584B0EC
S3152000277000AF78600A00BB1C1A800E203B1800228E
S315200027801A803B187A68128C1A803B183A181288DD
S3152000279009490A401A80BB1C1B881B0399B23B18A7
S315200027A03A1812880A431A807B683A1812881A84C3
S315200027B0C046BD4604B080BDFFDFFFFF80B584B0B4
S315200027C000AF786008001100BB1C021C1A803B0079
S315200027D00A1C1A800E217B1800221A80BB1C1B881B
S315200027E001229A407B181A807B681B8C9BB27A1830
S315200027F01288D24392B213409AB27B681A847B68BD
S315200028001B8C9AB23B001988BB1C1B8899400B0075
S315200028109BB213439AB27B681A84C046BD4604B065
S3152000282080BD80B584B000AF786008001100BB1C65
S31520002830021C1A803B000A1C1A800E217B180022DB
S315200028401A80BB1C1B8804229A407B181A807B683E
S315200028501B8C9BB27A181288D24392B213409AB23A
S315200028607B681A847B681B8C9AB23B001988BB1C38
S315200028701B8899400B009BB213439AB27B681A843B
S31520002880C046BD4604B080BD80B582B000AF78603A
S3152000289039603B681B88002B10D13B6859883B6800
S315200028A09A883B681B89786800F058FD3B68DA886F
S315200028B07B681100180000F0F3F839E03B681B88AC
S315200028C0042B10D13B6859883B689A883B681B8942
S315200028D0786800F09CFD3B68DA887B681100180058
S315200028E000F0FAF824E03B681B88082B10D13B68DF
S315200028F059883B689A883B681B89786800F0F2FD06
S315200029003B68DA887B681100180000F005F90FE0B3
S315200029103B6859883B689A883B681B89786800F031
S315200029204BFE3B68DA887B681100180000F010F92E
S31520002930C046BD4602B080BD80B582B000AF78608B
S315200029407B6800221A807B6800225A807B680122DD
S315200029509A807B680022DA807B6800221A81C04632
S31520002960BD4602B080BD90B585B000AF78603960B5
S315200029700E217B1800221A800C23FB1801221A80B4
S315200029803B685B88002B03D17B1802221A8003E068
S315200029900E23FB1800221A803B689B88012B04D14A
S315200029A00C23FB1802221A8003E00C23FB180122B9
S315200029B01A803B681B88002B23D13B6859883B68CB
S315200029C09A883B681B89786800F0C8FC3B68DA88DF
S315200029D07B681100180000F063F83B681C890C2303
S315200029E0FB181A880E23FB1819887868230000F034
S315200029F00EFD3B68DA887B681100180000F06CF841
S31520002A0022E03B6859883B689A883B681B8978682E
S31520002A1000F0FDFC3B68DA887B681100180000F0A6
S31520002A205BF83B681C890C23FB181A880E23FB18BD
S31520002A3019887868230000F091FC3B68DA887B6867
S31520002A401100180000F02CF8C046BD4605B090BD18
S31520002A5080B582B000AF78607B685B6B1800BD469E
S31520002A6002B080BD80B582B000AF78607B689B6B7A
S31520002A701800BD4602B080BD80B582B000AF786038
S31520002A807B68DB6B1800BD4602B080BD80B582B086
S31520002A9000AF78607B681B6C1800BD4602B080BD15
S31520002AA080B582B000AF78600A00BB1C1A807B68B4
S31520002AB01B8B9BB20C2293439AB27B681A837B684A
S31520002AC01B8B9AB2BB1C1B8813439AB27B681A8352
S31520002AD0C046BD4602B080BD80B582B000AF7860EA
S31520002AE00A00BB1C1A807B681B8B9BB2094A1340C9
S31520002AF09AB27B681A837B681B8B9AB2BB1C1B8895
S31520002B001B029BB213439AB27B681A83C046BD460A
S31520002B1002B080BDFFF3FFFF80B582B000AF7860C2
S31520002B200A00BB1C1A807B689B8B9BB20C229343AA
S31520002B309AB27B689A837B689B8B9AB2BB1C1B8854
S31520002B4013439AB27B689A83C046BD4602B080BDC5
S31520002B5080B582B000AF78600A00BB1C1A807B6803
S31520002B609B8B9BB2094A13409AB27B689A837B68F7
S31520002B709B8B9AB2BB1C1B881B029BB213439AB237
S31520002B807B689A83C046BD4602B080BDFFF3FFFF37
S31520002B9080B582B000AF786039603B681A883B68A0
S31520002BA05B8813439AB23B689B8813439AB23B686F
S31520002BB0DB8813439AB23B681B8913439AB23B685E
S31520002BC05B8913439AB23B689B89134399B27B680E
S31520002BD044229952C046BD4602B080BD80B582B01F
S31520002BE000AF78607B6800221A807B6800225A80BA
S31520002BF07B6800229A807B680022DA807B6800222C
S31520002C001A817B6800225A817B6800229A81C046FD
S31520002C10BD4602B080BD80B582B000AF78600A00A4
S31520002C20FB1C1A70FB1C1B78002B0AD07B684422E5
S31520002C309B5A9BB20A4A134399B27B684422995203
S31520002C4009E07B6844229B5A9BB25B045B0C99B2D9
S31520002C507B6844229952C046BD4602B080BDC0461C
S31520002C600080FFFF80B582B000AF78600A00FB1CB1
S31520002C701A70FB1C1B78002B08D07B689B889BB2A4
S31520002C80042213439AB27B689A8007E07B689B886C
S31520002C909BB2042293439AB27B689A80C046BD4673
S31520002CA002B080BD80B582B000AF78600A00FB1C00
S31520002CB01A70FB1C1B78002B08D07B689B889BB264
S31520002CC0012213439AB27B689A8007E07B689B882F
S31520002CD09BB2012293439AB27B689A80C046BD4636
S31520002CE002B080BD80B582B000AF786008001100C8
S31520002CF0BB1C021C1A807B1C0A1C1A707B1C1B78AE
S31520002D00002B09D07B689B899AB2BB1C1B88134376
S31520002D109AB27B689A810AE07B689B899BB2BA1C2F
S31520002D201288D24392B213409AB27B689A81C046E7
S31520002D30BD4602B080BD80B582B000AF78600A0083
S31520002D40BB1C1A807B68BA1C12889A82C046BD4674
S31520002D5002B080BD80B584B000AF78600A00BB1C8D
S31520002D601A800F217B1800221A707B681B8A9BB25F
S31520002D70BA1C128813409BB2002B03D07B18012269
S31520002D801A7003E00F23FB1800221A700F23FB187A
S31520002D901B781800BD4604B080BD80B582B000AF58
S31520002DA078600A00BB1C1A80BB1C1B88DB439AB2C6
S31520002DB07B681A82C046BD4602B080BDB0B584B0DD
S31520002DC000AF78600A00BB1C1A800F257B190022F1
S31520002DD01A700C203B1800221A800A243B19002264
S31520002DE01A807B681B8A9AB23B18B91C09880A404C
S31520002DF01A807B689B899AB23B19B91C09880A40BC
S31520002E001A803B181B88002B07D03B191B88002BE8
S31520002E1003D07B1901221A7003E00F23FB1800222E
S31520002E201A700F23FB181B781800BD4604B0B0BDDE
S31520002E3080B582B000AF78600A00BB1C1A80BB1C2C
S31520002E401B88DB439AB27B681A82C046BD4602B015
S31520002E5080BD80B582B000AF786008001100BB1C31
S31520002E60021C1A803B000A1C1A80BA1C3B001288DE
S31520002E701B88134399B27B6848229952C046BD46A7
S31520002E8002B080BD80B582B000AF78600800110026
S31520002E90BB1C021C1A807B1C0A1C1A707B1C1B780C
S31520002EA0002B09D07B689B899AB2BB1C1B881343D5
S31520002EB09AB27B689A810AE07B689B899BB2BA1C8E
S31520002EC01288D24392B213409AB27B689A81C04646
S31520002ED0BD4602B080BD80B582B000AF78600A00E2
S31520002EE0FB1C1A70FB1C1B78002B08D07B689B8868
S31520002EF09BB2082213439AB27B689A8007E07B68CC
S31520002F009B889BB2082293439AB27B689A80C046DC
S31520002F10BD4602B080BD80B582B000AF78607B68C8
S31520002F201B899BB2072293439AB27B681A81C046BB
S31520002F30BD4602B080BD80B582B000AF78600A0081
S31520002F40BB1C1A80BB1C1A887B681100180000F075
S31520002F50B9F87B681B899BB2072213439AB27B6818
S31520002F601A81C046BD4602B080BDB0B584B000AF60
S31520002F70F8600C00100019000A257B19221C1A8003
S31520002F8008243B19021C1A80BB1D0A1C1A807B19B7
S31520002F901B88602B09D1BB1D1A883B191988F86834
S31520002FA01300012200F033FA09E0BB1D1A8808231A
S31520002FB0FB181988F8681300012200F0CFF90A23BC
S31520002FC0FB181A88FB681100180000F07BF8FB68D4
S31520002FD01B899BB2072213439AB2FB681A81C0460B
S31520002FE0BD4604B0B0BDF0B587B000AFF8600C00A8
S31520002FF0100019000A26BB19221C1A800823FB1868
S31520003000021C1A80BB1D0A1C1A8016257B19002259
S315200030101A80BB1D1C880823FB181A88BB1919881F
S31520003020F868230000F0C6F87B19FA6812891A801E
S315200030307B1928007A19128807218A431A803B189F
S315200030403A18128807210A431A803B183A18128820
S3152000305070218A431A803B183A18128870210A4335
S315200030601A80FB683A1812881A81C046BD4607B0F6
S31520003070F0BDF0B585B000AFF8600C001000190067
S315200030800A257B19221C1A800826BB19021C1A80C5
S31520003090BB1D0A1C1A80BB1D1C88BB191A887B19EC
S315200030A01988F868230000F085F8FB681B899BB215
S315200030B08022D20113439AB2FB681A81C046BD46CC
S315200030C005B0F0BD80B584B000AF78600A00BB1CA7
S315200030D01A800E203B1800221A803B187A68128923
S315200030E01A803B183A18128870218A431A803B1896
S315200030F03918BA1C098812880A431A807B683A183C
S3152000310012881A81C046BD4604B080BD80B582B003
S3152000311000AF78600A00BB1C1A807B689B889BB234
S31520003120702293439AB27B689A807B689B889AB276
S31520003130BB1C1B8813439AB27B689A80C046BD4647
S3152000314002B080BD80B582B000AF78600A00BB1C9B
S315200031501A807B681B899BB2072293439AB27B68AD
S315200031601A817B681B899AB2BB1C1B8813439AB2AF
S315200031707B681A81C046BD4602B080BD80B582B04C
S3152000318000AF78600A00BB1C1A807B681B899BB243
S31520003190802293439AB27B681A817B681B899AB2F4
S315200031A0BB1C1B8813439AB27B681A81C046BD4656
S315200031B002B080BDB0B586B000AFF8600C0010003C
S315200031C019000A257B19221C1A8008243B19021C87
S315200031D01A80BB1D0A1C1A8016203B1800221A8052
S315200031E03B18FA6812891A803B183A181288FF2170
S315200031F00A401A80BB1D1B881B029AB23B191B88EA
S3152000320013439AB27B191B88134399B23B183A1879
S3152000321012880A431A80FB683A1812881A81C04617
S31520003220BD4606B0B0BDF0B587B000AFF8600C0063
S31520003230100019000A26BB19221C1A800823FB1825
S31520003240021C1A80BB1D0A1C1A8016217B1800221C
S315200032501A8014243B1900221A8012257B19002279
S315200032601A807B18FA6812891A803B19FA68128B21
S315200032701A807B19FA68128C1A8008003B183A18B3
S31520003280128807218A431A803B183918BA190988E7
S3152000329012880A431A803B193A19128816490A409D
S315200032A01A803B193A1912880221FF310A431A80E3
S315200032B07B197A19128822218A431A80BB1D1B8802
S315200032C01B019AB20823FB181B88134399B27B195A
S315200032D07A1912880A431A80FB683A1812881A81CA
S315200032E0FB683A1912881A83FB687A1912881A849D
S315200032F0C046BD4607B0F0BDFCFCFFFF80B582B0DE
S3152000330000AF78600A00FB1C1A70FB1C1B78002B90
S3152000331008D07B689B889BB2802213439AB27B6835
S315200033209A8007E07B689B889BB2802293439AB25F
S315200033307B689A80C046BD4602B080BD80B582B00B
S3152000334000AF78600A00BB1C1A807B68BA1C50212B
S3152000335012885A52C046BD4602B080BDF0B587B02D
S3152000336000AFF8600C00100019000A257B19221CFA
S315200033701A800826BB19021C1A80BB1D0A1C1A803B
S3152000338016203B1800221A8014243B1900221A808A
S31520003390FB681B8C9BB2012293439AB2FB681A846A
S315200033A03B18FA68128B1A803B19FA68128C1A801D
S315200033B03B183A181288F3218A431A80BB1D1B88B2
S315200033C01B019AB2BB191B88134399B23B183A18B2
S315200033D012880A431A803B193A1912880A218A430D
S315200033E01A807A193B1912881B8813439AB23B1903
S315200033F001210A431A80FB683A1812881A83FB684F
S315200034003A1912881A84C046BD4607B0F0BDF0B5F9
S3152000341087B000AFF8600C00100019000A26BB190F
S31520003420221C1A800823FB18021C1A80BB1D0A1CAA
S315200034301A8016217B1800221A8014243B19002298
S315200034401A8012257B1900221A80FB681B8C9BB2DE
S31520003450102293439AB2FB681A847B18FA68128B5F
S315200034601A803B19FA68128C1A807B19BA191288AD
S3152000347012011A807B1808007A18128818490A4007
S315200034801A80BB1D1B881B0399B23B183A18128859
S315200034900A431A800823FB181B881B0299B23B1883
S315200034A03A1812880A431A803B193A191288A02121
S315200034B08A431A807A193B1912881B8813439AB2B9
S315200034C03B1910210A431A80FB683A1812881A837E
S315200034D0FB683A1912881A84C046BD4607B0F0BD6B
S315200034E0FF0C0000F0B587B000AFF8600C001000AC
S315200034F019000A26BB19221C1A800823FB18021C55
S315200035001A80BB1D0A1C1A8016217B1800221A80DD
S3152000351014243B1900221A8012257B1900221A80B6
S31520003520FB681B8C9BB2224A13409AB2FB681A8412
S315200035307B18FA68928B1A803B19FA68128C1A80CB
S315200035407B19BA19128812021A807B1808007A1879
S315200035501288F3218A431A80BB1D1B881B019AB24D
S315200035600823FB181B88134399B23B183A18128874
S315200035700A431A803B193A1912880E490A401A80C2
S315200035807A193B1912881B8813439AB23B1980215A
S3152000359049000A431A80FB683A1812889A83FB6806
S315200035A03A1912881A84C046BD4607B0F0BDC046F7
S315200035B0FFFEFFFFFFF5FFFFF0B587B000AFF86015
S315200035C00C00100019000A26BB19221C1A80082399
S315200035D0FB18021C1A80BB1D0A1C1A8016217B1898
S315200035E000221A8014243B1900221A8012257B19E6
S315200035F000221A80FB681B8C9BB2244A13409AB285
S31520003600FB681A847B18FA68928B1A803B19FA6831
S31520003610128C1A807B19BA19128812031A807B1809
S3152000362008007A1812881A490A401A800823FB18BB
S315200036301B881B0299B23B183A1812880A431A8033
S31520003640BB1D1B881B0399B23B183A1812880A43E4
S315200036501A803B193A1912880E490A401A807A199B
S315200036603B1912881B8813439AB23B1980214901C2
S315200036700A431A80FB683A1812889A83FB683A191B
S3152000368012881A84C046BD4607B0F0BDFFEFFFFF83
S31520003690FF0C0000FF5F0000002243088B4274D31A
S315200036A003098B425FD3030A8B4244D3030B8B421D
S315200036B028D3030C8B420DD3FF22090212BA030C26
S315200036C08B4202D31212090265D0030B8B4219D307
S315200036D000E0090AC30B8B4201D3CB03C01A524127
S315200036E0830B8B4201D38B03C01A5241430B8B426F
S315200036F001D34B03C01A5241030B8B4201D30B0358
S31520003700C01A5241C30A8B4201D3CB02C01A52417E
S31520003710830A8B4201D38B02C01A5241430A8B4241
S3152000372001D34B02C01A5241030A8B4201D30B022A
S31520003730C01A5241CDD2C3098B4201D3CB01C01A44
S31520003740524183098B4201D38B01C01A524143094E
S315200037508B4201D34B01C01A524103098B4201D33C
S315200037600B01C01A5241C3088B4201D3CB00C01AA9
S31520003770524183088B4201D38B00C01A5241430821
S315200037808B4201D34B00C01A5241411A00D2014646
S31520003790524110467047FFE701B5002000F006F8B9
S315200037A002BDC0460029F7D076E770477047C0466D
S315200037B0931E10B50C00222B04D900231C000B707D
S315200037C0200010BD0A2A09D1002807DA2D230B7004
S315200037D001214042611800F007F8F1E70021F9E7DE
S315200037E010B5FFF7E5FF10BDF0B516008DB0070048
S315200037F00C002522164902A800F030F8B31E002539
S31520003800222B20D8631E009302AB0193380031008F
S31520003810FFF7C8FF0B00019A2900D35C009A0135F7
S3152000382053553B0007009E42F0D9002322006355E2
S315200038300B00C81A834208DD1078E55C1570E05449
S315200038400132013BF5E725702C0020000DB0F0BDBC
S31520003850A238002010B5FFF7C7FF10BD002310B512
S315200038609A4200D110BDCC5CC4540133F8E7000065
S3152000387000000000010203040102030406070809F0
S315200038800A77656C636F6D65000000006469737468
S31520003890616E636520697320746F6F2066617200A4
S315200038A00A00303132333435363738396162636451
S315200038B065666768696A6B6C6D6E6F70717273741A
S30D200038C075767778797A00000D
S70520000000DA
