S01B000044656275672F50726F6A6563745F6B65797061642E7331390F
S315200000000248854600F00AF9FEE7C04600C00120F6
S31520000010B0B586B000AF0121102000F063FF102498
S315200000203B19180000F047FA08257B19180000F044
S3152000003042FA3B00180000F03EFA21007B180F22FE
S315200000401A6028003B18F0221A603B00FF22120299
S315200000501A607B180222DA717B1800229A713B18EB
S3152000006000229A717B1800221A7104003B18012283
S315200000701A713B0001221A717B180A4A19001000D6
S3152000008000F08CF93B19074A1900100000F086F998
S315200000903B00044A1900100000F080F9C046BD4616
S315200000A006B0B0BD0010024080B582B000AF7860C7
S315200000B07B68042B23D87B689A00134BD3181B68C4
S315200000C09F46124B1021180000F087FA17E00F4BBD
S315200000D02021180000F081FA11E00C4B4021180075
S315200000E000F07BFA0BE0094B8021180000F075FA2E
S315200000F005E0064B0021180000F0AAFAC046C046CB
S31520000100BD4602B080BDC0466820002000100240D7
S3152000011080B500AF134B0821180000F008FA031E23
S3152000012001D004231BE00F4B0421180000F0FFF937
S31520000130031E01D0032312E00A4B0221180000F00F
S31520000140F6F9031E01D0022309E0064B012118000F
S3152000015000F0EDF9031E01D0012300E00023180072
S31520000160BD4680BD0010024080B592B000AF3A0077
S31520000170184B1000190040231A0001F043FF0123F9
S315200001807B641DE07B6C1800FFF78EFFFFF7C0FF36
S3152000019003003B643B6C002B0FD00020FFF784FF4D
S315200001A07B6C013B9A003B6C013BD2183B009200D2
S315200001B0D358180001F086F909E07B6C01337B6483
S315200001C07B6C042BDEDD0020FFF76EFFC046BD46AC
S315200001D012B080BD7C200020B0B58AB000AF0200EE
S315200001E0FB1D1A7008217B180A4A31CA31C331CA4D
S315200001F031C311CA11C3FB1D1A787B185200D35A7A
S31520000200054A1900100000F023FAC046BD460AB080
S31520000210B0BDC046BC2000200010024080B500AF13
S31520000220FFF7F6FEFFF7A0FFFCE7C04680B582B0D9
S3152000023000AF78607B684E4A934208D101210120A5
S3152000024000F0F0FE0021012000F0ECFE8CE07B683F
S31520000250484A934208D10121022000F0E3FE002102
S31520000260022000F0DFFE7FE07B68434A934208D1FC
S315200002700121042000F0D6FE0021042000F0D2FE49
S3152000028072E07B683D4A934208D10121082000F0A4
S31520000290C9FE0021082000F0C5FE65E07B68384ACB
S315200002A0934208D10121102000F0BCFE002110202D
S315200002B000F0B8FE58E07B68324A934208D101210B
S315200002C0202000F0AFFE0021202000F0ABFE4BE006
S315200002D07B682D4A934208D10121402000F0A2FEDE
S315200002E00021402000F09EFE3EE07B68274A934294
S315200002F008D10121802000F095FE0021802000F009
S3152000030091FE31E07B68224A93420CD180235B0028
S315200003100121180000F086FE80235B0000211800D2
S3152000032000F080FE20E07B681A4A93420CD180239D
S315200003309B000121180000F075FE80239B00002100
S31520000340180000F06FFE0FE07B68134A93420BD132
S315200003508023DB000121180000F064FE8023DB00EF
S315200003600021180000F05EFEC046BD4602B080BDEA
S31520000370000002400004024000080240000C024037
S31520000380001002400014024000180240001C0240E7
S3152000039000200240002402400028024080B586B09A
S315200003A000AF7860396000237B6100233B61002326
S315200003B0FB6000237B6176E001227B699A40130073
S315200003C03B613B681A683B691340FB60FA683B69EE
S315200003D09A4265D17B681B687A6952000321914055
S315200003E00A00D2431A407B681A607B681A683B6809
S315200003F01B7919007B695B0099400B001A437B68C7
S315200004001A603B681B79012B03D03B681B79022BB2
S315200004102ED17B689B687A695200032191400A009D
S31520000420D2431A407B689A607B689A683B685B79FE
S3152000043019007B695B0099400B001A437B689A6020
S315200004407B685B687A6992B2110001228A40D243A6
S315200004501A407B685A607B685B683A68927911001B
S315200004607A6992B291400A0092B21A437B685A6026
S315200004707B68DB687A6992B25200032191400A00B8
S31520000480D2431A407B68DA607B68DA683B68DB799E
S3152000049019007B695B0099400B001A437B68DA6080
S315200004A07B6901337B617B690F2B85D9C046C046AA
S315200004B0BD4606B080BD80B582B000AF78607B684F
S315200004C0084A1A607B6800221A717B6800225A71DA
S315200004D07B6800229A717B680022DA71C046BD468D
S315200004E002B080BDFFFF000080B584B000AF786009
S315200004F00A00BB1C1A8080235B02FB60BB1C1A8887
S31520000500FB681343FB60FA687B68DA61BB1C1A88B8
S315200005107B68DA61FA687B68DA617B68DB69FB6095
S315200005207B68DB69FB60C046BD4604B080BD80B5F4
S3152000053084B000AF78600A00BB1C1A800F217B189C
S3152000054000221A707B681B69BA1C1288134003D0DC
S315200005507B1801221A7003E00F23FB1800221A7061
S315200005600F23FB181B781800BD4604B080BD80B54C
S3152000057082B000AF78607B681B699BB21800BD46CD
S3152000058002B080BD80B584B000AF78600A00BB1C85
S315200005901A800F217B1800221A707B685B69BA1CAF
S315200005A01288134003D07B1801221A7003E00F2310
S315200005B0FB1800221A700F23FB181B781800BD4663
S315200005C004B080BD80B582B000AF78607B685B697F
S315200005D09BB21800BD4602B080BD80B582B000AF88
S315200005E078600A00BB1C1A807B68BA1C12881A83A2
S315200005F0C046BD4602B080BD80B582B000AF7860EF
S315200006000A00BB1C1A807B68BA1C12885A83C04613
S31520000610BD4602B080BD80B582B000AF78600800CC
S315200006201100BB1C021C1A807B1C0A1C1A707B1C26
S315200006301B78002B04D07B68BA1C12881A8303E02F
S315200006407B68BA1C12885A83C046BD4602B080BD5C
S3152000065080B582B000AF78600A00BB1C1A80BB1C34
S315200006601A887B685A61C046BD4602B080BD80B5F7
S3152000067082B000AF78600A00BB1C1A807B685A697A
S31520000680BB1C1B885A407B685A61C046BD4602B0D7
S3152000069080BD80B584B000AF786008001100BB1C17
S315200006A0021C1A807B1C0A1C1A700023FB60002384
S315200006B0BB607B1C1A78BB1C1B8807210B409B0048
S315200006C09A401300FB60BB1C1B88DB089BB21A00F8
S315200006D07B6808329200D358BA1C128807210A4038
S315200006E092000F2191400A00D243B91C0988C908FB
S315200006F089B208001A4011007B6802000832920075
S31520000700D150BB1C1B88DB089BB21A007B680832C1
S315200007109200D358FA681343BB60BB1C1B88DB08C6
S315200007209BB21A007B6808329200B968D150C04645
S31520000730BD4604B080BDC04680B500AF144B1A68D4
S31520000740134B01210A431A60114B00229A60104B69
S315200007501A680F4B0F490A401A600D4B0E4A5A6011
S315200007600B4A84230D49D150094A88230C49D1507C
S31520000770074B1A68064B0B490A401A60044B0022A5
S31520000780DA60034A8C230021D150C046BD4680BD85
S3152000079000380240FFFFF6EA103000240030002027
S315200007A000300024FFFFFBFF80B582B000AF0200BF
S315200007B0FB1D1A70054B00221A70044AFB1D1B787C
S315200007C01370C046BD4602B080BDC0460238024006
S315200007D090B583B000AF00233B60FB1D00221A704A
S315200007E0BB1D00221A70BC1D312000F0A1FD0300A4
S315200007F023703B6801333B603A68A023DB019A42B1
S3152000080003D0BB1D1B78002BEDD0312000F090FDCE
S31520000810031E03D0FB1D01221A7002E0FB1D0022DD
S315200008201A70FB1D1B781800BD4603B090BD80B51D
S3152000083084B000AF0200FB1D1A700023FB600A4B38
S315200008401B68FB60FB68F8229343FB60FB1D1B784B
S31520000850DB00FA681343FB60034BFA681A60C04654
S31520000860BD4604B080BDC0460038024080B582B087
S3152000087000AF0200FB1D1A70034BFA1D12781A6096
S31520000880C046BD4602B080BD0000474280B582B05A
S3152000089000AF0200FB1D1A700C4B00221A700B4B86
S315200008A000221A70FB1D1B78012B02D0042B04D0CA
S315200008B007E0064B01221A7003E0044B05221A704A
S315200008C0C046C046BD4602B080BDC0467038024014
S315200008D080B582B000AF0200FB1D1A70034BFA1DD3
S315200008E012781A60C046BD4602B080BD800E4742CF
S315200008F080B584B000AFF860B9607A603B607B68F1
S315200009009A01BB681A433B685B08013B1B041A43E8
S31520000910FB681A431100BB691A06034B0A435A6047
S31520000920C046BD4604B080BD0038024080B582B0C6
S3152000093000AF0200FB1D1A70034BFA1D12781A60D5
S31520000940C046BD4602B080BD6000474280B582B039
S3152000095000AF786039607B689A013B681B070449C1
S31520000960134384228B50C046BD4602B080BDC0468C
S315200009700038024080B582B000AF0200FB1D1A701D
S31520000980034BFA1D12781A60C046BD4602B080BDE0
S315200009906800474280B584B000AFF860B9607A60DD
S315200009A0FB689A01BB681B061A437B681B07044930
S315200009B0134388228B50C046BD4604B080BDC04636
S315200009C00038024080B582B000AF0200FB1D1A70CD
S315200009D0034BFA1D12781A60C046BD4602B080BD90
S315200009E07000474280B582B000AF0200FB1D1A702E
S315200009F0034BFA1D12781A60C046BD4602B080BD70
S31520000A004C00474280B584B000AF7860396000233F
S31520000A10FB600A4B9B68FB60FB68094A1340FB603E
S31520000A207A683B681343FA681343FB60034BFA6802
S31520000A309A60C046BD4604B080BDC046003802401C
S31520000A40FFFF9FF880B584B000AF7860396000233F
S31520000A50FB600A4B9B68FB60FB685B015B09FB60E4
S31520000A607A683B681343FA681343FB60034BFA68C2
S31520000A709A60C046BD4604B080BDC04600380240DC
S31520000A8080B584B000AF78600023FB60084B9B687C
S31520000A90FB60FB6803229343FB60FA687B68134381
S31520000AA0FB60034BFA689A60C046BD4604B080BD21
S31520000AB00038024080B500AF044B9B68DBB20C22A5
S31520000AC01340DBB21800BD4680BDC0460038024048
S31520000AD080B584B000AF78600023FB60084B9B682C
S31520000AE0FB60FB68F0229343FB60FA687B68134344
S31520000AF0FB60034BFA689A60C046BD4604B080BDD1
S31520000B000038024080B584B000AF78600023FB60D7
S31520000B10084B9B68FB60FB68074A1340FB60FA683A
S31520000B207B681343FB60034BFA689A60C046BD4658
S31520000B3004B080BD00380240FFE3FFFF80B584B0DB
S31520000B4000AF78600023FB60094B9B68FB60FB6865
S31520000B50084A1340FB607B68DB00FA681343FB609E
S31520000B60034BFA689A60C046BD4604B080BDC046B5
S31520000B7000380240FF1FFFFF80B588B000AF7860C5
S31520000B800023BB6100237B610023FB6102233B61C1
S31520000B900023FB600223BB604C4B9B680C22134056
S31520000BA0BB61BB69082B11D0BB69082B48D8BB6930
S31520000BB0002B03D0BB69042B04D041E07B68444A58
S31520000BC01A6041E07B68434A1A603DE03F4B5B6810
S31520000BD09B0D01221340FB603C4B5B683F22134078
S31520000BE0BB60FB68002B0DD0B9683A4801F07EF94E
S31520000BF003001A00354B5B689B09DB05DB0D53436D
S31520000C00FB610CE0B968324801F070F903001A0064
S31520000C102E4B5B689B09DB05DB0D5343FB612B4B9E
S31520000C205B681B0C0322134001335B003B6139696F
S31520000C30F86901F05BF903001A007B681A6003E08B
S31520000C407B68234A1A60C046204B9B68F0221340DB
S31520000C50BB61BB691B09BB611F4ABB69D3181B78E3
S31520000C60DBB27B617B681A687B69DA407B685A60F5
S31520000C70164B9A68E0235B011340BB61BB699B0A54
S31520000C80BB61154ABB69D3181B78DBB27B617B68D5
S31520000C905A687B69DA407B689A600C4B9A68E02335
S31520000CA01B021340BB61BB695B0BBB610A4ABB6974
S31520000CB0D3181B78DBB27B617B685A687B69DA4084
S31520000CC07B68DA60C046BD4608B080BD0038024069
S31520000CD00024F40040787D011820002080B584B0DF
S31520000CE000AF78600023FB607A68C0239B001A401F
S31520000CF0C0239B009A420FD10D4B9B68FB60FB687B
S31520000D000C4A1340FB607B680B4A1340FA68134376
S31520000D10FB60074BFA689A60054B196F7B681B05C9
S31520000D201A0D034B0A431A67C046BD4604B080BD60
S31520000D3000380240FFFFE0FFFFFCFF0F80B582B0C6
S31520000D4000AF0200FB1D1A70034BFA1D12781A60C1
S31520000D50C046BD4602B080BD3C0E474280B582B03B
S31520000D6000AF0200FB1D1A70034BFA1D12781A60A1
S31520000D70C046BD4602B080BD400E474280B582B017
S31520000D8000AF7860034B7A681A60C046BD4602B051
S31520000D9080BDC0465C01474280B584B000AF786014
S31520000DA00023FB60094A8C23D358FB60FB68084A62
S31520000DB01340FB60FA687B681343FB6003498C226F
S31520000DC0FB688B50C046BD4604B080BD003802404B
S31520000DD0FFFFCFFF80B584B000AF78600023FB60B3
S31520000DE0094A8C23D358FB60FB68084A1340FB60F2
S31520000DF0FA687B681343FB6003498C22FB688B509F
S31520000E00C046BD4604B080BD00380240FFFF3FFF0C
S31520000E1080B584B000AF78600023FB600A4A8C233B
S31520000E20D358FB60FB681F229343FB607B68013B22
S31520000E30FA681343FB6004498C22FB688B50C0463A
S31520000E40BD4604B080BDC0460038024080B584B09F
S31520000E5000AF78600023FB600A4A8C23D358FB60DE
S31520000E60FB68094A1340FB607B68013B1B02FA685A
S31520000E701343FB6003498C22FB688B50C046BD465A
S31520000E8004B080BD00380240FFE0FFFF80B584B08B
S31520000E9000AF78600023FB60094A8C23D358FB609F
S31520000EA0FB68084A1340FB60FA687B681343FB60C3
S31520000EB003498C22FB688B50C046BD4604B080BDDA
S31520000EC000380240FFFFFCFF80B582B000AF78609B
S31520000ED0034B7A681A60C046BD4602B080BDC04644
S31520000EE0E011474280B582B000AF78600A00FB1C53
S31520000EF01A70FB1C1B78002B06D0094B196B084B6C
S31520000F007A680A431A6306E0054B1A6B7B68D94355
S31520000F10034B0A401A63C046BD4602B080BDC04698
S31520000F200038024080B582B000AF78600A00FB1C12
S31520000F301A70FB1C1B78002B06D0094B596B084BEB
S31520000F407A680A435A6306E0054B5A6B7B68D94395
S31520000F50034B0A405A63C046BD4602B080BDC04618
S31520000F600038024080B582B000AF78600A00FB1CD2
S31520000F701A70FB1C1B78002B06D0094B996B084B6B
S31520000F807A680A439A6306E0054B9A6B7B68D943D5
S31520000F90034B0A409A63C046BD4602B080BDC04698
S31520000FA00038024080B582B000AF78600A00FB1C92
S31520000FB01A70FB1C1B78002B06D0094B196C084BAA
S31520000FC07A680A431A6406E0054B1A6C7B68D94393
S31520000FD0034B0A401A64C046BD4602B080BDC046D7
S31520000FE00038024080B582B000AF78600A00FB1C52
S31520000FF01A70FB1C1B78002B06D0094B596C084B2A
S315200010007A680A435A6406E0054B5A6C7B68D943D2
S31520001010034B0A405A64C046BD4602B080BDC04656
S315200010200038024080B582B000AF78600A00FB1C11
S315200010301A70FB1C1B78002B06D0094B1969084B2C
S315200010407A680A431A6106E0054B1A697B68D94318
S31520001050034B0A401A61C046BD4602B080BDC04659
S315200010600038024080B582B000AF78600A00FB1CD1
S315200010701A70FB1C1B78002B06D0094B5969084BAC
S315200010807A680A435A6106E0054B5A697B68D94358
S31520001090034B0A405A61C046BD4602B080BDC046D9
S315200010A00038024080B582B000AF78600A00FB1C91
S315200010B01A70FB1C1B78002B06D0094B9969084B2C
S315200010C07A680A439A6106E0054B9A697B68D94398
S315200010D0034B0A409A61C046BD4602B080BDC04659
S315200010E00038024080B582B000AF78600A00FB1C51
S315200010F01A70FB1C1B78002B06D0094B196A084B6B
S315200011007A680A431A6206E0054B1A6A7B68D94355
S31520001110034B0A401A62C046BD4602B080BDC04697
S315200011200038024080B582B000AF78600A00FB1C10
S315200011301A70FB1C1B78002B06D0094B596A084BEA
S315200011407A680A435A6206E0054B5A6A7B68D94395
S31520001150034B0A405A62C046BD4602B080BDC04617
S315200011600038024080B582B000AF78600A00FB1CD0
S315200011701A70FB1C1B78002B06D0094B196D084BE7
S315200011807A680A431A6506E0054B1A6D7B68D943CF
S31520001190034B0A401A65C046BD4602B080BDC04614
S315200011A00038024080B582B000AF78600A00FB1C90
S315200011B01A70FB1C1B78002B06D0094B596D084B67
S315200011C07A680A435A6506E0054B5A6D7B68D9430F
S315200011D0034B0A405A65C046BD4602B080BDC04694
S315200011E00038024080B582B000AF78600A00FB1C50
S315200011F01A70FB1C1B78002B06D0094B996D084BE7
S315200012007A680A439A6506E0054B9A6D7B68D9434E
S31520001210034B0A409A65C046BD4602B080BDC04613
S315200012200038024080B582B000AF78600A00FB1C0F
S315200012301A70FB1C1B78002B06D0094B196E084B25
S315200012407A680A431A6606E0054B1A6E7B68D9430C
S31520001250034B0A401A66C046BD4602B080BDC04652
S315200012600038024080B582B000AF78600A00FB1CCF
S315200012701A70FB1C1B78002B06D0094B596E084BA5
S315200012807A680A435A6606E0054B5A6E7B68D9434C
S31520001290034B0A405A66C046BD4602B080BDC046D2
S315200012A00038024080B582B000AF0200FB1D1A70E4
S315200012B0FB1D1B78012B06D1084B1A6F074B082103
S315200012C00A431A6705E0054B1A6F044B08218A4327
S315200012D01A67C046BD4602B080BDC04600380240EF
S315200012E080B582B000AF0200FB1D1A70BB1D0A1C20
S315200012F01A70BB1D1B78002B09D00C4B1B78DAB259
S315200013000A49FB1D1B781343DBB20B700AE0074B1F
S315200013101B78DBB2FA1D1278D243D2B203491340AE
S31520001320DBB20B70C046BD4602B080BD0D38024010
S3152000133080B586B000AF0200FB1D1A700023FB604B
S3152000134000237B611323FB1800221A70FB1D1B78D8
S315200013505B09DBB2FB60FB68012B03D1144B1B68D6
S315200013607B6109E0FB68022B03D1114B1B6F7B616C
S3152000137002E00F4B5B6F7B61FB1D1B781F22134026
S31520001380FB607A69FB68DA4013000122134004D01F
S315200013901323FB1801221A7003E01323FB180022E3
S315200013A01A701323FB181B781800BD4606B080BDA3
S315200013B00038024080B500AF044B5A6F034B8021A2
S315200013C049040A435A67C046BD4680BD00380240DC
S315200013D080B584B000AF0200FB1D1A700F217B1868
S315200013E000221A700A4BDB68FA1D1278134003D0CC
S315200013F07B1801221A7003E00F23FB1800221A70B3
S315200014000F23FB181B781800BD4604B080BDC046CC
S315200014100038024080B582B000AF0200FB1D1A7072
S31520001420034AFB1D1B781370C046BD4602B080BD23
S315200014300E38024080B582B000AF0200FB1D1A7044
S31520001440C0460B4B1B889BB21A0080231340F8D052
S31520001450074AFB1D1B789BB29380FB1D1B780A2B2A
S3152000146002D10D20FFF7E6FFC046BD4602B080BD83
S315200014700010014080B500AF074B1B889BB21A00B5
S315200014802023134001D1002303E0034B9B889BB20A
S31520001490DBB21800BD4680BD0010014080B500AF0C
S315200014A0C046074B1B889BB21A0020231340F8D056
S315200014B0034B9B889BB2DBB21800BD4680BDC0465D
S315200014C00010014080B582B000AF786006E07B68EE
S315200014D05A1C7A601B781800FFF7ACFF7B681B78D4
S315200014E0002BF4D1C046C046BD4602B080BDC046E2
S315200014F080B582B000AF78607B68414A934208D1BC
S3152000150001211020FFF70EFE00211020FFF70AFE12
S3152000151071E07B683B4A93420CD180239B020121D8
S315200015201800FFF7DFFD80239B0200211800FFF73C
S31520001530D9FD60E07B68344A93420CD18023DB02DC
S3152000154001211800FFF7CEFD8023DB0200211800C1
S31520001550FFF7C8FD4FE07B682C4A93420CD18023CD
S315200015601B0301211800FFF7BDFD80231B0300216B
S315200015701800FFF7B7FD3EE07B68254A93420CD161
S3152000158080235B0301211800FFF7ACFD80235B035A
S3152000159000211800FFF7A6FD2DE07B681D4A934227
S315200015A008D101212020FFF7BDFD00212020FFF7D3
S315200015B0B9FD20E07B68184A93420CD18023DB05D5
S315200015C001211800FFF78EFD8023DB05002118007E
S315200015D0FFF788FD0FE07B68104A93420BD18023EA
S315200015E01B0601211800FFF77DFD80231B06002125
S315200015F01800FFF777FDC046BD4602B080BDC04645
S31520001600001001400044004000480040004C0040CB
S31520001610005000400014014000780040007C00404B
S3152000162080B58AB000AF7860396000237B620023E2
S315200016303B620023FB610023BB617B681B8A9BB254
S315200016407B627B6A564A13407B623B68DB881A00C2
S315200016507B6A13437B627B6A9AB27B681A827B68B9
S315200016609B899BB27B627B6A4E4A13407B623B68B6
S315200016709A883B681B8913439AB23B685B8913435C
S315200016809BB21A007B6A13437B627B6A9AB27B68A1
S315200016909A817B689B8A9BB27B627B6A424A134013
S315200016A07B623B689B891A007B6A13437B627B6A59
S315200016B09AB27B689A820823FB181800FFF75CFA17
S315200016C07B683A4A934203D07B68394A934204D1D5
S315200016D00823FB18DB683B6203E00823FB189B68A2
S315200016E03B627B689B899BB21BB2002B0FDA3A6A5E
S315200016F013009B009B189A009A183B681B685B0096
S315200017001900100000F0F2FB0300FB610EE03A6ABC
S3152000171013009B009B189A009A183B681B689B0035
S315200017201900100000F0E2FB0300FB61FB69642155
S31520001730180000F0DBFB03001B017B627B6A1B09A0
S3152000174064225343FA69D31ABB617B689B899BB297
S315200017501BB2002B0EDABB69DB0032336421180082
S3152000176000F0C4FB03001A00072313407A6A1343D0
S315200017707B620DE0BB691B0132336421180000F047
S31520001780B5FB03001A000F2313407A6A13437B62CA
S315200017907B6A9AB27B681A81C046BD460AB080BD74
S315200017A0FFCFFFFFF3E9FFFFFFFCFFFF0010014023
S315200017B00014014080B582B000AF78607B68962225
S315200017C092011A607B6800229A807B680022DA8068
S315200017D07B6800221A817B680C225A817B68002252
S315200017E09A81C046BD4602B080BD80B584B000AFA8
S315200017F0786039600023FB607B681B8A9BB2FB60A4
S31520001800FB680E4A1340FB603B681A883B685B887E
S3152000181013439AB23B689B8813439AB23B68DB8892
S3152000182013439BB21A00FB681343FB60FB689AB212
S315200018307B681A82C046BD4604B080BDFFF0FFFF1C
S3152000184080B582B000AF78607B6800221A807B6802
S3152000185000225A807B6800229A807B680022DA80E8
S31520001860C046BD4602B080BD80B582B000AF78606C
S315200018700A00FB1C1A70FB1C1B78002B09D07B6806
S315200018809B899BB28022920113439AB27B689A81EC
S3152000189007E07B689B899BB2044A13409AB27B6817
S315200018A09A81C046BD4602B080BDC046FFDFFFFF1D
S315200018B080B582B000AF78600A00FB1C1A707B6886
S315200018C01B8B9BB2FF2293439AB27B681A837B6859
S315200018D01B8B9AB2FB1C1B789BB213439AB27B6874
S315200018E01A83C046BD4602B080BD80B582B000AF27
S315200018F078600A00FB1C1A70FB1C1B78002B08D092
S315200019007B689B899BB2094A13439AB27B689A816A
S3152000191007E07B689B899BB25B045B0C9AB27B6871
S315200019209A81C046BD4602B080BDC0460080FFFFFA
S3152000193080B582B000AF78600A00FB1C1A70FB1CD1
S315200019401B78002B09D07B689B8A9BB280221201D0
S3152000195013439AB27B689A8207E07B689B8A9BB284
S31520001960044A13409AB27B689A82C046BD4602B0AA
S3152000197080BDC046FFF7FFFF80B582B000AF78601C
S315200019800A00BB1C1A80BB1C1B88DB05DB0D9AB228
S315200019907B689A80C046BD4602B080BD80B582B0C5
S315200019A000AF78607B689B889BB2DB05DB0D9BB222
S315200019B01800BD4602B080BD80B582B000AF786009
S315200019C00A00FB1C1A707B681B8A9BB20F2293436A
S315200019D09AB27B681A827B681B8A9AB2FB1C1B7898
S315200019E09BB213439AB27B681A82C046BD4602B0A8
S315200019F080BD80B582B000AF78600A00FB1C1A70EB
S31520001A00FB1C1B78002B08D07B689B899BB202228B
S31520001A1013439AB27B689A8107E07B689B899BB2C5
S31520001A20022293439AB27B689A81C046BD4602B091
S31520001A3080BD80B582B000AF78600A00BB1C1A80DA
S31520001A407B689B899BB2094A13409AB27B689A812C
S31520001A507B689B899AB2BB1C1B8813439AB27B680E
S31520001A609A81C046BD4602B080BDC046FFF7FFFF43
S31520001A7080B582B000AF78600A00BB1C1A807B68F4
S31520001A801B8A9BB2202293439AB27B681A827B6878
S31520001A901B8A9AB2BB1C1B8813439AB27B681A8294
S31520001AA0C046BD4602B080BD80B582B000AF78602A
S31520001AB00A00FB1C1A70FB1C1B78002B09D07B68C4
S31520001AC01B8A9BB28022D20113439AB27B681A8268
S31520001AD007E07B681B8A9BB2044A13409AB27B6854
S31520001AE01A82C046BD4602B080BDC046FFBFFFFF7A
S31520001AF080B582B000AF78607B689B899BB201225B
S31520001B0013439AB27B689A81C046BD4602B080BD17
S31520001B1080B582B000AF78600A00FB1C1A70FB1CEF
S31520001B201B78002B08D07B689B8A9BB20822134324
S31520001B309AB27B689A8207E07B689B8A9BB20822CE
S31520001B4093439AB27B689A82C046BD4602B080BD56
S31520001B5080B582B000AF78600A00FB1C1A707B68E3
S31520001B601B8B9BB2FF2213409AB27B681A837B6839
S31520001B701B8B9AB2FB1C1B789BB21B029BB2134396
S31520001B809AB27B681A83C046BD4602B080BD80B536
S31520001B9082B000AF78600A00FB1C1A70FB1C1B7811
S31520001BA0002B08D07B689B8A9BB2202213439AB2D3
S31520001BB07B689A8207E07B689B8A9BB220229343AC
S31520001BC09AB27B689A82C046BD4602B080BD80B577
S31520001BD082B000AF78600A00FB1C1A70FB1C1B78D1
S31520001BE0002B08D07B689B8A9BB2102213439AB2A3
S31520001BF07B689A8207E07B689B8A9BB2102293437C
S31520001C009AB27B689A82C046BD4602B080BD80B536
S31520001C1082B000AF78600A00BB1C1A807B689B8A62
S31520001C209BB2042293439AB27B689A827B689B8AF2
S31520001C309AB2BB1C1B8813439AB27B689A82C04611
S31520001C40BD4602B080BD80B582B000AF78600A0084
S31520001C50FB1C1A70FB1C1B78002B08D07B689B8A08
S31520001C609BB2022213439AB27B689A8207E07B6872
S31520001C709B8A9BB2022293439AB27B689A82C04681
S31520001C80BD4602B080BD80B582B000AF7860080046
S31520001C901100BB1C021C1A807B1C0A1C1A707B1CA0
S31520001CA01B78002B09D07B689B8A9AB2BB1C1B88A9
S31520001CB013439AB27B689A820AE07B689B8A9BB21E
S31520001CC0BA1C1288D24392B213409AB27B689A8287
S31520001CD0C046BD4602B080BD80B586B000AF7860F4
S31520001CE008001100BB1C021C1A807B1C0A1C1A70DF
S31520001CF000233B610023FB600023BB6000237B6144
S31520001D007B687B61BB1C1B88DBB25B09DBB23B615A
S31520001D10BB1C1B881F221340FB600122FB689A40D4
S31520001D201300BB603B69012B03D17B690C337B61BC
S31520001D3009E03B69022B03D17B6910337B6102E00A
S31520001D407B6914337B617B1C1B78002B06D07B6957
S31520001D5019687B69BA680A431A6006E07B691A68C3
S31520001D60BB68D9437B690A401A60C046BD4606B0A7
S31520001D7080BD80B584B000AF78600A00BB1C1A8095
S31520001D800F217B1800221A707B681B889BB2BA1C15
S31520001D90128813409BB2002B03D07B1801221A70A5
S31520001DA003E00F23FB1800221A700F23FB181B7861
S31520001DB01800BD4604B080BD80B582B000AF786003
S31520001DC00A00BB1C1A80BB1C1B88DB439AB27B68AB
S31520001DD01A80C046BD4602B080BD80B586B000AF31
S31520001DE078600A00BB1C1A800023FB6000237B61FD
S31520001DF00023BB601323FB1800221A70BB1C1B8810
S31520001E00DBB25B09DBB2BB60BB1C1B881F22134005
S31520001E107B6101227B699A4013007B61BB68012BA1
S31520001E2007D17B689B899BB21A007B6913407B6133
S31520001E3011E0BB68022B07D17B681B8A9BB21A0074
S31520001E407B6913407B6106E07B689B8A9BB21A0004
S31520001E507B6913407B61BB1C1B881B0A9BB2FB6002
S31520001E600122FB689A401300FB607B681B889BB2AB
S31520001E701A00FB681340FB607B69002B07D0FB68C8
S31520001E80002B04D01323FB1801221A7003E013231E
S31520001E90FB1800221A701323FB181B781800BD4666
S31520001EA006B080BD80B584B000AF78600A00BB1C48
S31520001EB01A800E217B1800221A800C203B18002243
S31520001EC01A807B18BA1C1288120A1A807B181B8863
S31520001ED001229A403B181A803B181B88DB439AB292
S31520001EE07B681A80C046BD4604B080BD00224308E8
S31520001EF08B4274D303098B425FD3030A8B4244D3AC
S31520001F00030B8B4228D3030C8B420DD3FF220902ED
S31520001F1012BA030C8B4202D31212090265D0030BAC
S31520001F208B4219D300E0090AC30B8B4201D3CB03A2
S31520001F30C01A5241830B8B4201D38B03C01A5241E4
S31520001F40430B8B4201D34B03C01A5241030B8B42E6
S31520001F5001D30B03C01A5241C30A8B4201D3CB02D1
S31520001F60C01A5241830A8B4201D38B02C01A5241B6
S31520001F70430A8B4201D34B02C01A5241030A8B42B9
S31520001F8001D30B02C01A5241CDD2C3098B4201D3D1
S31520001F90CB01C01A524183098B4201D38B01C01A4F
S31520001FA0524143098B4201D34B01C01A52410309C6
S31520001FB08B4201D30B01C01A5241C3088B4201D375
S31520001FC0CB00C01A524183088B4201D38B00C01A22
S31520001FD0524143088B4201D34B00C01A5241411A49
S31520001FE000D20146524110467047FFE701B5002056
S31520001FF000F006F802BDC0460029F7D076E7704704
S315200020007047C046002310B59A4200D110BDCC5C63
S31520002010C4540133F8E70000000000000102030465
S3152000202001020304060708093100000032000000FF
S3152000203033000000307841003400000035000000F5
S3152000204036000000307842003700000038000000DB
S315200020503900000030784300307845003000000019
S315200020603078460030784400F2000020C20000207C
S31520002070CE000020DA000020E600002028200020E4
S315200020802C20002030200020342000203820002062
S315200020903C20002040200020442000204820002012
S315200020A04C200020502000205420002058200020C2
S315200020B05C2000206020002064200020003F0006D5
S315200020C0005B004F0066006D007D0007007F006FFB
S311200020D00077007C0058005E008000763F
S70520000000DA
